:1000000007C1000036C1000034C1000032C1000049
:1000100030C100002EC100002CC100002AC1000028
:1000200028C100000C94B40F0C94B40F0C94B40FBE
:1000300020C100001EC100001CC1000021C300003F
:1000400018C1000016C1000014C1000012C1000058
:1000500010C100000EC100000CC1000072C20000FF
:1000600008C100000C94E70C0C94BD0C02C1000008
:1000700000C10000FEC00000FCC00000FAC000008B
:10008000F8C00000F6C00000F4C00000F2C000009C
:10009000F0C00000EEC00000ECC000000C94BE0FE9
:1000A000E8C00000E6C00000E4C00000E2C00000BC
:1000B000E0C00000DEC00000DCC00000DAC00000CC
:1000C000D8C00000D6C00000D4C000000C94940C2E
:1000D0000C946A0CCEC00000CCC00000CAC0000066
:1000E000C8C000000F021202010205020902490203
:1000F00016021A022002240228022E0232023602BE
:1001000049023C0240024402000021002400270072
:100110002A002D0030003300010100000401070116
:100120000A0100002200250028002B002E003100CB
:10013000340002010000050108010B010505050559
:10014000070508080808020202020A0A080804044F
:10015000040401010101010101010303030303037D
:100160000303040707070C0C0C0C0C0C0C0C02020C
:10017000020206060606060606060B0B0B0B0B0B09
:100180000B0B010210202008081020401020408096
:10019000020102010804020101020408102040804B
:1001A00080402010080402018004020180402010D9
:1001B0000804020108040201010204081020408022
:1001C000010204081020408000000A0B02090C0DF7
:1001D0000E080703040100000000000000000000FA
:1001E000000000000000000000000000000000000F
:1001F00000000000121110000000000000000000CC
:1002000000000000000000000000000000004C138F
:1002100011241FBECFEFD1E2DEBFCDBF00E00CBF87
:100220002BE0A6EAB4E001C01D92A33BB207E1F7C0
:1002300014E0A0E0B2E0E2E9FEE200E00BBF02C0A1
:1002400007900D92A63AB107D9F711E0C8E0D1E0C6
:1002500000E006C021970109802FFE010E941A15B7
:10026000C730D10780E00807A9F70E9441110C941C
:100270004717C6CE80E090E0892B21F00E94FC0950
:10028000811121C080E090E0892B41F080E090E076
:10029000892B21F00E940000811118C080E090E0BD
:1002A000892B21F00E94F309811113C080E090E0B6
:1002B000892BA1F080E090E0892B81F00E94000062
:1002C00081110AC008950E940000DCCF0E94000046
:1002D000E5CF0E940000EACF0C94000008953FB7DC
:1002E000F8948091B7069091B806A091B906B091A4
:1002F000BA0626B5A89B05C02F3F19F00196A11D8F
:10030000B11D3FBFBA2FA92F982F8827820F911DAB
:10031000A11DB11DBC01CD0142E0660F771F881FF2
:10032000991F4A95D1F70895CF93DF931F92CDB7C8
:10033000DEB789832091AD063981E091AE06F09158
:10034000AF06822F90E080959095F8940080082267
:1003500000824BE000C05DE000005A95E9F70080A4
:1003600008220894379508F4022A00824A9599F7E2
:1003700078940F90DF91CF9108950E943317FC017C
:10038000848DDF01A80FB11DA35ABF4F2C91848D1E
:1003900090E001968F739927848FA689B7892C9353
:1003A000A089B1898C9180648C93938D848D9813EE
:1003B00006C00288F389E02D80818F7D80830895B7
:1003C000362F90E0FC01E853FE4F4491FC01EE57BC
:1003D000FE4F2491FC01E45CFE4F9491992309F4B3
:1003E0006BC0442309F455C050E0FA013197E23163
:1003F000F10508F04EC08827EE58FF4F8F4F0C9440
:100400001A15809180008F7707C0809180008F7DC2
:1004100003C080918000877F809380003AC084B5BC
:100420008F7702C084B58F7D84BD33C08091B000CA
:100430008F7703C08091B0008F7D8093B00029C07A
:10044000809190008F7707C0809190008F7D03C0CE
:1004500080919000877F809390001BC08091A000C6
:100460008F7707C08091A0008F7D03C08091A0008E
:10047000877F8093A0000DC0809120018F7707C0F7
:10048000809120018F7D03C080912001877F809320
:100490002001E92FF0E0EE0FFF1FEE5DFE4FA5916A
:1004A000B4918FB7F894EC91311103C020952E23AD
:1004B00001C02E2B2C938FBF08958F929F92AF92E5
:1004C000BF92CF92DF92EF92FF926B017C0107DF28
:1004D0004B015C01C114D104E104F104E9F0FFDE39
:1004E000DC01CB0188199909AA09BB09883E934010
:1004F000A105B10578F321E0C21AD108E108F1089D
:1005000088EE880E83E0981EA11CB11CC114D10492
:10051000E104F10421F7DECFFF90EF90DF90CF9060
:10052000BF90AF909F908F9008952FB7F8946091EF
:10053000B3067091B4068091B5069091B6062FBFB0
:1005400008951F920F920FB60F9211242F933F938D
:100550008F939F93AF93BF938091B3069091B4060E
:10056000A091B506B091B6063091B20623E0230FF4
:100570002D3720F40196A11DB11D05C026E8230FDB
:100580000296A11DB11D2093B2068093B3069093ED
:10059000B406A093B506B093B6068091B7069091C5
:1005A000B806A091B906B091BA060196A11DB11D79
:1005B0008093B7069093B806A093B906B093BA0695
:1005C000BF91AF919F918F913F912F910F900FBE4F
:1005D0000F901F901895CF93DF93EC0186E499E07C
:1005E000F6D6892B21F086E499E0CFD6F7CFBE016D
:1005F00086E499E00E94E80B6FEF86E499E0B0D7BB
:100600006FEF86E499E0ACD76FEF86E499E0DF9175
:10061000CF91A6C7EF92FF920F931F93CF93DF93D3
:1006200000D000D0CDB7DEB77C018B0166E672E06A
:10063000CE0101960E944D0BF70162817381CE01BC
:100640000196F7D76BE672E0CE010196F2D7898169
:100650009A81C1DFC8010E94E90B182F89819A8114
:100660000E94B715812F26960FB6F894DEBF0FBEF5
:10067000CDBFDF91CF911F910F91FF90EF90089523
:1006800078941F920F920FB60F9211240BB60F920F
:100690002F933F934F935F936F937F938F939F938A
:1006A000AF93BF93CF93DF93EF93FF93809170004D
:1006B0008E7F80937000CFE7D0E08091B00690915C
:1006C000B106009729F5C332D10508F43FC0A397BE
:1006D000E091AE06F091AF0690818091AD068095D5
:1006E000892380838BE09AE29A95F1F700C08150CC
:1006F000D1F7E091AE06F091AF0690818091AD0602
:10070000892B80838AE28A95F1F700C080E008C0D7
:10071000CB30D105D8F02B97FC01E654F94F8081FE
:1007200003DE8091B0069091B10601969093B106D8
:100730008093B006209104023091050228173907F2
:1007400008F0BBCF1092B1061092B00680917000F5
:10075000816080937000FF91EF91DF91CF91BF9105
:10076000AF919F918F917F916F915F914F913F9149
:100770002F910F900BBE0F900FBE0F901F901895EA
:1007800081E08093BB088FE391E0FC012491E22F8C
:10079000F0E0EE0FFF1FEE5DFE4F25913491309398
:1007A000AF062093AE06E5E8F1E024912093AD0674
:1007B0002491FC018491882399F090E0880F991F7F
:1007C000FC01E85FFE4FA591B491FC01EE5DFE4F88
:1007D000859194918FB7F894EC91E22BEC938FBFB5
:1007E0008091700081608093700008950F931F9333
:1007F000CF93DF93EB0199DE8B010E94260F8F3F91
:1008000041F093DE601B710B6C177D07B0F380E045
:1008100001C081E0DF91CF911F910F910895EF9278
:10082000FF920F931F93CF93DF93EC017901411552
:1008300051056105710511F482E13BC08B85833060
:1008400039F089E0440F551F661F771F8A95D1F74D
:100850009A01AB0168E1CE010E94400F882311F09C
:1008600084E027C08EEF0E941F0F87018EEFF81AD9
:10087000F80181918F010E941F0F0E151F05C1F70E
:100880008FEF0E941F0F8FEF0E941F0F0E94260FF5
:100890008A878F71853031F081E18D83CE010E948E
:1008A000140F08C068E572E0CE01A0DF811107C017
:1008B00085E18D83CE010E94140F80E013C020E0FB
:1008C00030E0A9016DE0CE010E94400F811104C00B
:1008D0000E94260F882311F084E1EBCFCE010E9405
:1008E000140F81E0DF91CF911F910F91FF90EF9056
:1008F0000895CF93DF938091A804882389F1C09154
:10090000A604D091A7044091000250910102609189
:100910000202709103022DEA34E0CE0180DF8111E2
:1009200002C080E01EC04091A9045091AA046091C9
:10093000AB047091AC04411551056105710571F06E
:100940002DEA34E0CE016BDF882359F31092A9041D
:100950001092AA041092AB041092AC041092A80456
:1009600081E0DF91CF910895BF92CF92DF92EF9215
:10097000FF920F931F93CF93DF936B017C01B42EF3
:100980008091000290910102A0910202B0910302B5
:100990008C159D05AE05BF0509F473C0AADF882339
:1009A00009F476C0C091A604D091A7048E81882353
:1009B00069F088819981AA81BB81C816D906EA06A7
:1009C000FB0621F48F819885892BA1F1C882D982F9
:1009D000EA82FB828B85A7019601833039F089E09A
:1009E000220F331F441F551F8A95D1F761E1CE01B5
:1009F0000E94400F882319F083E08D8335C095DD78
:100A00008B010E94260F8A878F3F41F48EDD601B89
:100A1000710B6D327140A8F38FE003C08E3F31F04F
:100A20008DE08D83CE010E94140F1EC018861F8298
:100A300081E08E830DEA14E00E94260FF801819375
:100A40008F01F6E00D3A1F07B9F78F8198859E5FF9
:100A500098878F832985222319F08115924048F0C9
:100A6000CE010E94280F05C0CE010E94140F80E025
:100A70000FC0C0920002D0920102E0920202F092F6
:100A800003028091A804482F4B294093A80481E0D9
:100A9000DF91CF911F910F91FF90EF90DF90CF905A
:100AA000BF9008954F925F926F927F928F929F9224
:100AB000AF92BF92CF92DF92EF92FF920F931F936C
:100AC000CF93DF93EC016A017B01280139014230A9
:100AD00051056105710510F480E072C089859A8521
:100AE000AB85BC850196A11DB11D84179507A6078E
:100AF000B70790F38B889C88AD88BE888F8980313A
:100B000029F4BB27AF2D9E2D8D2D09C0DB01CA0115
:100B100047E0B695A795979587954A95D1F7880EA2
:100B2000991EAA1EBB1E8091000290910102A09105
:100B30000202B091030288169906AA06BB0679F450
:100B40008F89803199F4DD24EE24FF24C601880FBB
:100B5000991FFC01E355FB4F5182408218C040E0D1
:100B6000C501B40101DF8111EBCFB6CFE894C7F81E
:100B7000DD24EE24FF24C601880F991F880F991FDA
:100B8000FC01E355FB4F4082518262827382809167
:100B9000A80481608093A8048A89823080F08D81C6
:100BA0009E81AF81B885880E991EAA1EBB1E8092B9
:100BB000A9049092AA04A092AB04B092AC0481E084
:100BC000DF91CF911F910F91FF90EF90DF90CF9029
:100BD000BF90AF909F908F907F906F905F904F905D
:100BE00008958F929F92AF92BF92CF92DF92EF9231
:100BF000FF920F931F93CF93DF93FC018185928522
:100C0000A385B4850196A11DB11D84179507A6077C
:100C1000B70710F480E05BC083899489A589B68901
:100C2000C789C03129F4852E962EA72EBB2409C072
:100C30004A015B01C7E0B694A79497948794CA953C
:100C4000D1F7E9016A017B018F01BC01CD01680D7B
:100C5000791D8A1D9B1D8090000290900102A0903A
:100C60000202B0900302681579058A059B0599F484
:100C7000F80187898031A1F4B701A60155276627BD
:100C80007727440F551FFA01E355FB4F808191816F
:100C9000A0E0B0E017C040E067DE8111E9CFBACF35
:100CA000B701A6014F77552766277727440F551FB1
:100CB000440F551FFA01E355FB4F80819181A281BA
:100CC000B381BF7088839983AA83BB8381E0DF915E
:100CD000CF911F910F91FF90EF90DF90CF90BF9039
:100CE000AF909F908F9008953F924F925F926F9236
:100CF0007F928F929F92AF92BF92CF92DF92EF92AC
:100D0000FF920F931F93CF93DF93CDB7DEB72C974E
:100D10000FB6F894DEBF0FBECDBF5C01DC015B9661
:100D20008D909C905C971696CD90DD90ED90FC9008
:100D30001997C114D104E104F10439F0BFEFCB1AC3
:100D4000DB0AEB0AFB0A312C07C0F401C080D1801A
:100D5000E280F38033243394F40181859285A38566
:100D6000B4859C01AD012F5F3F4F4F4F5F4F2987E7
:100D70003A874B875C87260137011D821E821F82BE
:100D80001886F40181859285A385B4852D813E81E5
:100D90004F815885281739074A075B0708F060C05C
:100DA00089859A85AB85BC858C159D05AE05BF05EB
:100DB00050F482E0C82ED12CE12CF12C92E0492E87
:100DC000512C612C712C9E012F5F3F4FB701A60162
:100DD000C40107DF882309F443C089819A81AB816C
:100DE000BC81892B8A2B8B2B41F0260137019FEF89
:100DF000491A590A690A790A05C0C414D504E604D7
:100E0000F70491F02D813E814F8158852F5F3F4F30
:100E10004F4F5F4F2D833E834F8358873FEFC31A59
:100E2000D30AE30AF30AADCF0FEF1FEF2FEF3FE036
:100E3000B301A201C40136DE882391F0D5011696D4
:100E40004D915D916D917C91199741155105610509
:100E5000710541F093018201C40124DE811102C0B9
:100E600080E02AC0D50116964D925D926D927C92DB
:100E70001997332051F0D301C2010196A11DB11D74
:100E8000F40180839183A283B383F5018789908DD8
:100E9000A18DB28D892B8A2B8B2B69F4D5015796A6
:100EA0004D925D926D927C925A9714968C91149704
:100EB000806814968C9381E02C960FB6F894DEBF70
:100EC0000FBECDBFDF91CF911F910F91FF90EF909B
:100ED000DF90CF90BF90AF909F908F907F906F905A
:100EE0005F904F903F9008954F925F926F927F92E4
:100EF0008F929F92AF92BF92EF92FF920F931F93A8
:100F0000CF93DF9300D01F921F92CDB7DEB78C0135
:100F10006D83DC0115968C911597813009F056C0D0
:100F200014968C9181FF52C059C0038CF48DE02D32
:100F3000258530E0275F3F4F2A013B01B1E04B1A86
:100F4000510861087108022E04C076946794579482
:100F500047940A94D2F7D501C4010197A109B109B8
:100F600004C0B695A795979587952A95D2F78415CD
:100F70009505A605B70508F06FC0F8014789508DA3
:100F8000618D728D46835783608771872C013D0187
:100F90007801E6E0EE0EF11CD80141145104610421
:100FA000710409F463C016964D915D916D917C9129
:100FB000199797015B968D919C915C9712DEB1E039
:100FC0004B1A5108610871088111E6CF81E090E069
:100FD000F8019383828380E090E049C182FF0EC0D4
:100FE000F801428553856485758583889488A58832
:100FF000B688481559056A057B05F1F4D8011A969B
:101000004D915D916D917C911D975B968D919C9119
:101010005C97FC0174807A944A015B0129E0B694E4
:10102000A794979487942A95D1F778207A01F1E0D4
:10103000FF22772011F162C081149104A104B10450
:1010400009F073CF1682178210861186F801128676
:10105000138614861586D2CF452B462B472B09F4D1
:101060008CCF84199509A609B70990CF1A968D924D
:101070009D92AD92BC921D97C1CFE114F10409F08D
:101080003DC0F80146815781608571854115510544
:101090006105710549F48789908DA18DB28D009706
:1010A000A105B10531F520C09E012F5F3F4F99DDAD
:1010B000882309F490CF89819A81AB81BC81F801A2
:1010C000238D348DF9012789203129F048EF5FEF16
:1010D0006FEF7FE004C048EF5FEF60E070E08417DF
:1010E0009507A607B70728F0C801FEDD811106C0E5
:1010F0006DCFF80186839783A087B187D8015B966F
:10110000ED91FC915C9716968D909D90AD90BC9062
:101110001997B2E08B1A9108A108B108058404C0A0
:10112000880C991CAA1CBB1C0A94D2F7868597854B
:10113000A089B189880E991EAA1EBB1E870C911C1E
:10114000A11CB11CE114F10401F5F801428553859D
:101150006485758583899489A589B6894817590757
:101160006A077B0790F0C5DB882309F42FCF8092B4
:10117000000290920102A0920202B09203028091BA
:10118000A80481608093A80407C041E0C501B401B0
:10119000EBDB882309F41ACFF701E355FB4F8D8170
:1011A0008083F80182859385A485B5850196A11D6C
:1011B000B11D82879387A487B58743895489658940
:1011C0007689481759076A077B0738F4838B948B15
:1011D000A58BB68B848180688483D80114968C910A
:1011E00083FD03C081E090E042C0F801958199231E
:1011F00009F4ECCE87FF37C06685778580899189B1
:1012000041E0B2DB882309F4E1CED8015296EC919B
:10121000B0E2EB9F90011124D901A355BB4F109769
:1012200009F4D4CEF8018581823050F44389548981
:10123000658976895C964D935D936D937C935F97FA
:10124000F8018789908DA18DB28DF901E355FB4F8F
:10125000938F828FB58BA48BD80114968C911497A1
:101260008F7714968C9345DB8111BCCFAFCE0F9056
:101270000F900F900F900F90DF91CF911F910F91D2
:10128000FF90EF90BF90AF909F908F907F906F9066
:101290005F904F900895FC01A089B18982E08C9302
:1012A000A485B5851C92A685B7858FEC8C93108E8E
:1012B000A489B58986E08C93A289B3898C918061D9
:1012C0008C93A289B3898C9188608C93A289B3890D
:1012D0008C9180688C930288F389E02D80818F7DCA
:1012E00080830895CF92DF92EF92FF920F931F9326
:1012F000CF93DF936C017A018B01C0E0D0E0CE1573
:10130000DF0589F0D8016D918D01D601ED91FC9139
:101310000190F081E02DC6011995892B11F47E0111
:1013200002C02196ECCFC701DF91CF911F910F91A1
:10133000FF90EF90DF90CF900895FC01A089B189D4
:101340008C91A689B78982FD0FC09C91818D8F5F9A
:101350008F73228D821749F0218DDF01A20FB11DFD
:101360005D969C93818F08958C910895FC01538D17
:10137000448D252F30E0842F90E0821B930B54176F
:1013800010F0CF96089501970895FC01918D828DFC
:10139000981761F0828DDF01A80FB11D5D968C91C9
:1013A000928D9F5F9F73928F90E008958FEF9FEFD4
:1013B0000895FC01918D828D981731F0828DE80F90
:1013C000F11D858D90E008958FEF9FEF0895FC014A
:1013D000918D228D892F90E0805C9F4F821B910917
:1013E0008F739927089586E499E0F1DF21E0892B36
:1013F00009F420E0822F089583EE99E0E8DF21E0F0
:10140000892B09F420E0822F08950F931F938DD824
:1014100060934E0970934F0980935009909351093E
:10142000E0914609F09147090284F385E02D86E4B6
:1014300099E0199597FF1EC078D800914E09109138
:101440004F092091500930915109DC01CB01801BDB
:10145000910BA20BB30B00914A0910914B092091FB
:101460004C0930914D0980179107A207B307C0F2CC
:101470008FEF9FEF1F910F910895EF92FF920F93BF
:101480001F93CF93DF9300D01F92CDB7DEB71982A1
:101490001A821B821C8284E690E0A0E0B0E0809378
:1014A0004A0990934B09A0934C09B0934D098E01C2
:1014B0000F5F1F4F7E0185E0E80EF11CA6DF97FF4E
:1014C00004C089818130B1F407C0F80181938F0194
:1014D000EE15FF0599F7F5CF8A818F3F59F48B817F
:1014E0008F3F41F48C818F3F29F480E792E077D6DB
:1014F00081E004C08AE892E072D680E00F900F90FD
:101500000F900F90DF91CF911F910F91FF90EF906F
:1015100008950F931F93CF93DF93EC0188819981F6
:10152000009729F02A813B812617370788F48B0121
:101530006F5F7F4F0E944F16009761F099838883F9
:101540001B830A832C813D81232B11F4FC01108223
:1015500081E001C080E0DF91CF911F910F9108954C
:10156000EF92FF920F931F93CF93DF93EC0181E0F3
:10157000888F9B8D8C8D981305C0E889F9898081AF
:1015800085FD24C0F62E0B8D10E00F5F1F4F0F73EB
:101590001127E02E8C8DE8120CC00FB607FCFACF95
:1015A000E889F989808185FFF5CFCE010E94BF01CE
:1015B000F1CF8B8DFE01E80FF11DE35AFF4FF08252
:1015C0000B8FEA89FB898081806207C0EE89FF89E1
:1015D0006083E889F98980818064808381E090E07C
:1015E000DF91CF911F910F91FF90EF900895CF93CE
:1015F000DF93EC01888D8823C9F0EA89FB8980811B
:1016000085FD05C0A889B9898C9186FD0FC00FB6EC
:1016100007FCF5CF808185FFF2CFA889B9898C912D
:1016200085FFEDCFCE010E94BF01E7CFDF91CF91C3
:101630000895EF92FF920F931F93CF93DF9361155D
:10164000710511F480E022C0FB0101900020E9F750
:101650003197E61BF70BDC0114960D911C91159741
:10166000309799F07B01EC010E0F1F1FB80151DF7D
:10167000882341F3288139818C819D81B701820FB4
:10168000931F0E9440171D830C8381E0DF91CF914F
:101690001F910F91FF90EF900895EF92FF920F939B
:1016A0001F93CF93DF93EC01198218821B821A8259
:1016B0001D821C826115710541F18B01FB010190B6
:1016C0000020E9F731977F01E61AF70AB70121DF19
:1016D0002881398181110DC02115310519F0C90109
:1016E0000E94B715198218821D821C821B821A82E1
:1016F0000CC0FD82EC82B801C901DF91CF911F912E
:101700000F91FF90EF900C944017DF91CF911F91B4
:101710000F91FF90EF9008956115710579F0FB012D
:1017200001900020E9F73197AF01461B570BDC0110
:10173000ED91FC910280F381E02D199480E090E01E
:101740000895CF92DF92EF92FF92CF93DF936C01D7
:10175000990FEE08FF08F7FE19C0E091E309F09138
:10176000E4090190F081E02D6DE283EE99E0199596
:10177000EC0166277727CB016C197D098E099F093B
:101780004AE03ED57C01EC0EFD1E05C04AE0C701D3
:10179000B60136D57C0165EA72E083EE99E0BCDFE4
:1017A0008E0D9F1DDF91CF91FF90EF90DF90CF9036
:1017B0000895CF93DF934AE023D5EC0165EA72E008
:1017C00083EE99E0A9DF8C0F9D1FDF91CF910895E3
:1017D000A3CFCF92DF92EF92FF920F931F93CF93FD
:1017E000DF93CDB7DEB728970FB6F894DEBF0FBEF4
:1017F000CDBF8C01FE01319688E0DF011D928A95F4
:10180000E9F70115110509F452C084E690E0A0E063
:10181000B0E080934A0990934B09A0934C09B09390
:101820004D097F01C12CD12CF0DD97FD40C0F7019F
:1018300081937F01FFEFCF1ADF0A88E0C816D10439
:1018400099F78981813799F58E818F3F81F58F8155
:101850008F3F69F588858F3F51F58D814C8150E030
:1018600060E070E0BA0155274427782B8A81482B25
:101870008B8190E0982F8827092E000CAA0BBB0BB8
:10188000482B592B6A2B7B2BD8014D935D936D937D
:101890007C93139768EA72E083EE99E099DFF80190
:1018A000608171818281938184DF81E004C088EB53
:1018B00092E095D480E028960FB6F894DEBF0FBE74
:1018C000CDBFDF91CF911F910F91FF90EF90DF90EF
:1018D000CF9008951F920F920FB60F9211240BB65E
:1018E0000F922F933F934F935F936F937F938F93B9
:1018F0009F93AF93BF93EF93FF9386E499E00E9489
:10190000BF01FF91EF91BF91AF919F918F917F9117
:101910006F915F914F913F912F910F900BBE0F9060
:101920000FBE0F901F9018951F920F920FB60F9237
:1019300011240BB60F922F933F934F935F936F93A6
:101940007F938F939F93AF93BF93EF93FF9386E41F
:1019500099E0F3DCFF91EF91BF91AF919F918F914F
:101960007F916F915F914F913F912F910F900BBE9F
:101970000F900FBE0F901F9018951F920F920FB6E9
:101980000F9211240BB60F922F933F934F935F93B7
:101990006F937F938F939F93AF93BF93EF93FF9337
:1019A00083EE99E00E94BF01FF91EF91BF91AF914B
:1019B0009F918F917F916F915F914F913F912F9167
:1019C0000F900BBE0F900FBE0F901F9018951F9297
:1019D0000F920FB60F9211240BB60F922F933F93D5
:1019E0004F935F936F937F938F939F93AF93BF9327
:1019F000EF93FF9383EE99E0A0DCFF91EF91BF910D
:101A0000AF919F918F917F916F915F914F913F9196
:101A10002F910F900BBE0F900FBE0F901F90189537
:101A200085ED8093BC008091BC0084FDFCCF1092BA
:101A30001D0908954091F708262F30E0240F311D2D
:101A400021323105DCF420911D092430C9F4FC0158
:101A500080E090E0861758F43091F7082191DC017E
:101A6000AB52B74FA30FB11D2C930196F3CF8091CA
:101A7000F708680F6093F70880E0089581E0089503
:101A800082E0089508958FEF9FEF08958FEF9FEF05
:101A900008958091D40890E09195819591090895D9
:101AA000CF93DF931F921F92CDB7DEB7CB01642F88
:101AB00049835A83BFDF4981842F5A81952F0F9024
:101AC0000F90DF91CF910895CF93DF931F92CDB701
:101AD000DEB7698361E0CE010196ACDF81E090E082
:101AE0000F90DF91CF910895089580E090E00895E0
:101AF0008FEF92E074D36CE272E086E39BE00E9489
:101B00000A0360912C0270912D0280912E02909117
:101B10002F024FCE87E093E062D36CE272E086E35F
:101B20009BE00E940A0360912C0270912D0280912B
:101B30002E0290912F023DCE60E570E080E090E0B3
:101B40000E945D028DE093E04AD36EEB78E082E480
:101B50009BE00C940A0360E570E080E090E00E9456
:101B60005D028CE193E03BD36EEB78E082E49BE096
:101B70000C940A0360ED78E086E39BE00E940A0380
:101B800087E393E02CD360ED78E082E49BE00E9451
:101B90000A038091D0089091D108A091D208B09109
:101BA000D30880932C0290932D02A0932E02B09321
:101BB0002F026BE473E083EE99E00ADE60912C0261
:101BC00070912D0280912E0290912F02F2DD6CE532
:101BD00073E083EE99E0FCDD6091BE087091BF0870
:101BE0008091C0089091C108E4DD8091BE08909179
:101BF000BF08A091C008B091C10840912C0250913B
:101C00002D0260912E0270912F02481759076A0722
:101C10007B07A0F080932C0290932D02A0932E02BC
:101C2000B0932F0288E693E0DAD260912C02709193
:101C30002D0280912E0290912F02BBDD80912C020B
:101C400090912D02A0912E02B0912F020297A10532
:101C5000B10560F484E893E0C2D260912C027091E7
:101C60002D0280912E0290912F02A3CD089564E958
:101C700073E083EE99E0ACDD80E390E0A0E0B0E0BB
:101C80008093BE089093BF08A093C008B093C1088A
:101C900008956EEA73E083EE99E09ADD80E891E0C2
:101CA000A0E0B0E08093BE089093BF08A093C00866
:101CB000B093C10808956BEC73E083EE99E088DD82
:101CC00080EC90E0A0E0B0E08093BE089093BF0865
:101CD000A093C008B093C108089569EE73E083EE45
:101CE00099E076DD80E890E0A0E0B0E08093BE0867
:101CF0009093BF08A093C008B093C108089568E00E
:101D000074E083EE99E064DD84E290E0A0E0B0E06E
:101D10008093BE089093BF08A093C008B093C108F9
:101D2000089565E274E083EE99E052DD80E190E091
:101D3000A0E0B0E08093BE089093BF08A093C008D5
:101D4000B093C108089562E474E083EE99E040DD49
:101D500083E090E0A0E0B0E08093BE089093BF08DD
:101D6000A093C008B093C10808958FEF90E09093BE
:101D7000BD088093BC086EE574E083EE99E028DD31
:101D80008091BC089091BD08DCCC1092BD081092E7
:101D9000BC086EE574E083EE99E01ADD8091BC0822
:101DA0009091BD08CECCCF93DF9300D000D0CDB7BB
:101DB000DEB766E672E0CE0101966FDC6091140B2F
:101DC0007091150BCE01019634DC6BE672E0CE010A
:101DD00001962FDC89819A810E94EB028CEC98E0BD
:101DE000F8DC89819A81C3D66EE674E083EE99E0CF
:101DF000EFDC6091CC087091CD088091CE08909175
:101E0000CF08D7DC8091CC089091CD089093BD0885
:101E10008093BC0896DC26960FB6F894DEBF0FBE02
:101E2000CDBFDF91CF91089561E0FC0184810E94D4
:101E3000E0018091450981111092450908958EBDF8
:101E400000000DB407FEFDCF8EB508958FEFF7CFDC
:101E5000CF93DF93EC018E81882379F08F81988571
:101E60009C012F5F3F4F38872F838230924010F4C0
:101E7000EDDFF4CFCE01D8DF1E82DF91CF91089540
:101E8000CF92DF92FF920F931F93CF93DF9300D0F7
:101E90001F92CDB7DEB76C01F62E29833A834B83B0
:101EA0005C83D6DF8091450929813A814B815C8131
:101EB000811109C081E0809345099091800A809149
:101EC000810A9CBD8DBD60E0F601848129833A833F
:101ED0004B835C830E94E0016CE271E0C6010E94CA
:101EE000F6038F2D8064ABDF08E110E05C814B814D
:101EF0003A812981DA01C901002E04C0B695A7955F
:101F0000979587950A94D2F729833A834B835C830C
:101F100096DF0850110929813A814B815C81083F85
:101F2000FFEF1F0739F7FF2029F088E0F81204C0FF
:101F300087E803C085E901C08FEF81DF10E086DF0D
:101F4000F601828787FF04C01F3F11F01F5FF7CFA4
:101F50000F900F900F900F90DF91CF911F910F91E5
:101F6000FF90DF90CF9008951F920F920FB60F92BF
:101F700011240F900FBE0F901F9018951F920F9273
:101F80000FB60F9211240BB60F922F933F934F93DE
:101F90005F936F937F938F939F93AF93BF93EF93D1
:101FA000FF938091B900887F803609F49CC068F562
:101FB000883209F45BC090F4803109F454C038F4DD
:101FC000882309F4F6C0883009F44DC0F5C0883183
:101FD00009F44CC0803209F45DC0EEC0803409F4CD
:101FE00068C048F4803309F455C0883309F0E4C070
:101FF00080931C09D8C0803509F44FC0883509F496
:102000005DC0883409F0D8C0D6C0883909F4C7C08B
:10201000A8F4883709F467C038F4883609F463C037
:10202000803709F460C0C8C0883809F4B8C0803966
:1020300009F45FC0803809F0BFC05BC0803B09F481
:1020400086C038F4803A09F466C0883A09F47FC043
:10205000B3C0803C09F4A7C0883C09F4A4C0883B05
:1020600009F48AC0A9C08091420910C09091410929
:1020700080914009981770F5E091410981E08E0F39
:1020800080934109F0E0E05EF64F80818093BB00D1
:1020900085EC86C080931C098EC0E091410981E0E7
:1020A0008E0F809341098091BB00F0E0E05EF64F17
:1020B000808390914109809140096EC0E09141096F
:1020C00081E08E0F809341098091BB00F0E0E05EDB
:1020D000F64F808380911F0981116DC081E080934C
:1020E0001E0984EA61C083E080931D0910921B09D8
:1020F000CFCF80911B09803208F051C0E0911B09BD
:1021000081E08E0F80931B098091BB00F0E0E550C9
:10211000F74F8083BDCF85EC8093BC0010921D09E2
:1021200080911B09803230F4E0911B09F0E0E5500A
:10213000F74F108260911B0970E0E091F908F0916F
:10214000FA088BEF98E0199510921B0935C084E0CE
:1021500080931D091092F8081092F708E091F50895
:10216000F091F60819958091F708811105C081E07A
:102170008093F7081092D508E091F80881E08E0F5F
:102180008093F808F0E0EB52F74F80818093BB001A
:102190009091F8088091F708981708F479CF85E8AE
:1021A0008093BC0009C085EC8093BC0010921D098F
:1021B00003C010921C0934DCFF91EF91BF91AF91E5
:1021C0009F918F917F916F915F914F913F912F914F
:1021D0000F900BBE0F900FBE0F901F901895CF93CE
:1021E000DF93BC0183EE99E097DAEC0165EA72E0D7
:1021F00083EE99E091DA8C0F9D1FDF91CF910895C6
:102200008F929F92AF92BF920F931F93CF93DF93C2
:10221000CDB7DEB7A1970FB6F894DEBF0FBECDBF26
:1022200019A2423008F44AE08E010F5D1F4F842E40
:10223000912CA12CB12CA5019401DAD3E62FB90180
:10224000CA0101501109EA3014F4E05D01C0E95CF3
:10225000D801EC93232B242B252B69F7B80183EEAF
:1022600099E05ADAA1960FB6F894DEBF0FBECDBF43
:10227000DF91CF911F910F91BF90AF909F908F9062
:102280000895789484B5826084BD84B5816084BDEE
:1022900085B5826085BD85B5816085BD80916E0004
:1022A000816080936E001092810080918100826035
:1022B0008093810080918100816080938100809172
:1022C00080008160809380008091B1008460809361
:1022D000B1008091B00081608093B0008091910046
:1022E0008260809391008091910081608093910041
:1022F000809190008160809390008091A100826025
:102300008093A1008091A10081608093A1008091C1
:10231000A00081608093A000809121018260809361
:102320002101809121018160809321018091200110
:1023300081608093200180917A00846080937A008C
:1023400080917A00826080937A0080917A00816027
:1023500080937A0080917A00806880937A0010924E
:10236000C1008AEC92E03BDF83EE99E00E944B09CA
:1023700086E499E00E944B0987EA92E00E94EB0212
:1023800088ED92E00E94EB0278D880EE92E00E9405
:10239000EB0273D88AE89DE09093570B8093560B1D
:1023A0001092590B1092580B85EC9EE090932F0BD6
:1023B00080932E0B1092310B1092300B85EB9EE028
:1023C0009093230B8093220B1092250B1092240BD9
:1023D00083ED9EE090931B0B80931A0B10921D0BC4
:1023E00010921C0B83EA9EE090930B0B80930A0BD8
:1023F00010920D0B10920C0B81E99EE09093FF0A56
:102400008093FE0A1092010B1092000B8FE79EE062
:102410009093F30A8093F20A1092F50A1092F40A4C
:102420008DE69EE09093E70A8093E60A1092E90A0F
:102430001092E80A8BE59EE09093DB0A8093DA0A1B
:102440001092DD0A1092DC0A89E49EE09093CF0A94
:102450008093CE0A1092D10A1092D00A87E39EE0B0
:102460009093C30A8093C20A1092C50A1092C40ABC
:102470008AEB9DE09093AF0A8093AE0A1092B10A66
:102480001092B00A8BEA9DE09093A30A8093A20A6F
:102490001092A50A1092A40A8CE99DE09093970AE5
:1024A0008093960A1092990A1092980A88E79DE004
:1024B00090938B0A80938A0A10928D0A10928C0A4C
:1024C00087EE92E08CDE8091BE089091BF081816CE
:1024D000190664F0809170008E7F809370001092D6
:1024E000BB08109205021092040210C0813022E055
:1024F000920714F080E092E090930502809304022A
:102500008091BB08811102C00E94C003C091BC0829
:10251000C0902C02D0902D02E0902E02F0902F025D
:102520008091BB08811102C00E94C003C6010197BF
:10253000811522E09207F0F4209104023091050207
:10254000C216D30608F46901D0920502C0920402B3
:10255000FC01E554F94FC0830DC06AE070E080E0F3
:1025600090E00E945D0286E499E00E94C509C82FB0
:10257000853641F086E499E00E94E70918161906AD
:1025800064F337C086E499E00E94E709069794F364
:10259000C093C208C3ECD8E086E499E00E94C50964
:1025A000899388E0C93CD807B9F71092C90880918F
:1025B000C6088F3FF9F68091C7088F3FD9F6809102
:1025C000C8088F3FB9F6C090C508D12CE12CF12C7A
:1025D0008091C4089091C308E6E0F2E0C191D191E6
:1025E000209741F228812913F9CF29812813F6CFAA
:1025F00003C00E943A0167CF6BEF72E083EE99E06F
:10260000E7D84AE0BE010D2E000C880B990BF8DDCF
:1026100066EB72E083EE99E0DBD8688170E080E0E1
:1026200090E04AE0EDDD6DEF72E083EE99E0D0D806
:10263000698170E080E090E04AE0E2DD6DEF72E0F9
:1026400083EE99E0C5D86A817B816115710511F42B
:1026500062EF72E083EE99E0BBD889EF92E0BFDDD4
:1026600021E0C216D104E104F10441F4EC81FD81C2
:10267000309709F47FCF8E819F810CC0CD28CE2862
:10268000CF2809F077CFE885F985309709F472CF24
:102690008A859B8519956ECFEF92FF920F931F93BA
:1026A000CF93DF93E6E4F9E01382128288EE93E0A1
:1026B000A0E0B0E084839583A683B7832AE332E069
:1026C0003183208345ED50E05587448744ED50E049
:1026D0005787468740ED50E0518B408B41ED50E0ED
:1026E000538B428B42ED50E0558B448B46ED50E0CE
:1026F000578B468B118E128E138E148EE3EEF9E0FB
:102700001382128284839583A683B78331832083C7
:1027100025EC30E03587248724EC30E037872687A6
:1027200020EC30E0318B208B21EC30E0338B228B9E
:1027300022EC30E0358B248B26EC30E0378B268B77
:10274000118E128E138E148EE0E8FAE020E52083BD
:102750001182EAE5FBE0158216821186138642E0BB
:1027600050E060E070E0448755876687778713A262
:1027700015A614A62CE432E033A722A717A6E3EA95
:10278000FBE01382128284839583A683B78388E556
:1027900092E091838083EEE4FBE01082ACE0A183C1
:1027A000CFE7D4E0D383C2831582148211861086CA
:1027B0001386128617821682E2E4FBE0108293E011
:1027C000918322E834E033832283158214821186B8
:1027D00010861386128617821682E6E3FBE01082CB
:1027E00089E0818325E834E03383228315821482D3
:1027F000118610861386128617821682EAE2FBE0A3
:1028000010828DE0818308E814E01383028315822F
:102810001482118610861386128617821682EEE1C4
:10282000FBE010828EE081836BE874E07383628347
:1028300015821482118610861386128617821682DC
:10284000E2E1FBE010825FE051838EE8E82E84E055
:10285000F82EF382E2821582148211861086138686
:10286000128617821682E6E0FBE081E08083818396
:10287000B1E9EB2EB4E0FB2EF382E28215821482E2
:10288000118610861386128617821682EAEFFAE006
:1028900080834183B4E9EB2EB4E0FB2EF382E28225
:1028A000158214821186108613861286178216826C
:1028B000EEEEFAE08083B4E0B183138302831582E5
:1028C0001482118610861386128617821682E2EE13
:1028D000FAE080839183D383C283158214821186A8
:1028E00010861386128617821682E6EDFAE0808340
:1028F000B5E0B183738362831582148211861086DA
:102900001386128617821682EAECFAE0808367E06B
:10291000618367E974E07383628315821482118690
:1029200010861386128617821682EEEBFAE08083F9
:1029300086E081836AE974E073836283158214827E
:10294000118610861386128617821682E2EBFAE051
:10295000908380E1818333832283158214821186E0
:1029600010861386128617821682E6EAFAE09083B2
:10297000A1832DE934E033832283158214821186EA
:1029800010861386128617821682EAE9FAE04083DF
:10299000A1833383228315821482118610861386C5
:1029A000128617821682EEE8FAE04083518321EA0C
:1029B00034E03383228315821482118610861386B5
:1029C000128617821682E2E8FAE01082818373830E
:1029D00062831582148211861086138612861782EE
:1029E0001682DF91CF911F910F91FF90EF90089584
:1029F000A1E21A2EAA1BBB1BFD010DC0AA1FBB1F03
:102A0000EE1FFF1FA217B307E407F50720F0A21B74
:102A1000B30BE40BF50B661F771F881F991F1A94E1
:102A200069F760957095809590959B01AC01BD010B
:102A3000CF010895EE0FFF1F881F8BBF0790F691FF
:102A4000E02D1994CF93DF938230910510F482E04A
:102A500090E0E091B10BF091B20B20E030E0C0E0EB
:102A6000D0E0309711F14081518148175907C0F0EB
:102A70004817590761F482819381209719F09B834D
:102A80008A832BC09093B20B8093B10B26C0211583
:102A9000310519F04217530718F49A01BE01DF01FE
:102AA000EF010280F381E02DDCCF2115310509F122
:102AB000281B390B2430310590F412968D919C918E
:102AC00013976115710521F0FB019383828304C084
:102AD0009093B20B8093B10BFD01329644C0FD017F
:102AE000E20FF31F81939193225031092D933C9370
:102AF0003AC02091AF0B3091B00B232B41F42091C1
:102B00003202309133023093B00B2093AF0B2091FF
:102B10003002309131022115310541F42DB73EB715
:102B20004091340250913502241B350BE091AF0BDC
:102B3000F091B00BE217F307A0F42E1B3F0B281700
:102B4000390778F0AC014E5F5F4F2417350748F026
:102B50004E0F5F1F5093B00B4093AF0B8193919337
:102B600002C0E0E0F0E0CF01DF91CF9108950F9334
:102B70001F93CF93DF93009709F48CC0FC01329729
:102B8000138212820091B10B1091B20B0115110545
:102B900081F420813181820F931F2091AF0B3091FE
:102BA000B00B2817390779F5F093B00BE093AF0B12
:102BB00071C0D80140E050E0AE17BF0750F4129644
:102BC0002D913C911397AD012115310509F1D901E2
:102BD000F3CF9D01DA013383228360817181860FF7
:102BE000971F8217930769F4EC0128813981260F1A
:102BF000371F2E5F3F4F318320838A819B819383D0
:102C00008283452B29F4F093B20BE093B10B42C0C1
:102C10001396FC93EE931297ED01499159919E0101
:102C2000240F351FE217F30771F480819181840F1F
:102C3000951F029611969C938E9382819381139691
:102C40009C938E931297E0E0F0E0D80112968D915C
:102C50009C911397009719F0F8018C01F6CF8D9194
:102C60009C9198012E5F3F4F820F931F2091AF0BD5
:102C70003091B00B2817390769F4309729F4109276
:102C8000B20B1092B10B02C0138212821093B00BE0
:102C90000093AF0BDF91CF911F910F9108956F9229
:102CA0007F928F929F92AF92BF92CF92DF92EF92DC
:102CB000FF920F931F93CF93DF93EC01009781F462
:102CC000CB01DF91CF911F910F91FF90EF90DF909B
:102CD000CF90BF90AF909F908F907F906F90B2CE2B
:102CE000FC01E60FF71F9C0122503109E217F307A0
:102CF00008F4A8C0D9010D911C9111970617170768
:102D0000A8F00530110508F49BC0C8010497861788
:102D1000970708F495C002501109061B170B019381
:102D200011936D937C93CF0122DF8AC05B01A01ABF
:102D3000B10A4C01800E911EA091B10BB091B20B63
:102D400040E050E0E12CF12C109709F44AC0A8159E
:102D5000B905D1F56D907C901197630182E0C80EA2
:102D6000D11CCA14DB0480F1A3014A195B096A0172
:102D700082E0C80ED11C1296BC9012971396AC91AB
:102D8000B5E0CB16D10440F0B282A38351834083D7
:102D9000D9016D937C930AC00E5F1F4FC301800F52
:102DA000911FF90191838083EB2DFA2FE114F10437
:102DB00031F0D7011396FC93EE93129741C0F09334
:102DC000B20BE093B10B3CC08D919C9111974817C9
:102DD000590708F4AC017D0112960D90BC91A02D0D
:102DE000B3CF8091AF0B9091B00B88159905E1F4AA
:102DF00046175707C8F4809130029091310200972E
:102E000041F48DB79EB74091340250913502841B36
:102E1000950BE817F907B0F4F093B00BE093AF0B04
:102E2000F901718360830CC0CB010CDE7C0100973B
:102E300049F0A801BE011BD0CE0199DEC70104C034
:102E4000CE0102C080E090E0DF91CF911F910F9101
:102E5000FF90EF90DF90CF90BF90AF909F908F90BA
:102E60007F906F90089581E090E0F89410C0FB018E
:102E7000DC0102C001900D9241505040D8F70895F6
:102E8000FB01DC0101900D920020E1F70895F89418
:022E9000FFCF72
:102E9200FFFFFFFF10004E0B420B360B2A0B1E0BDF
:102EA200120B060BFA0AEE0AE20AD60ACA0ABE0A8E
:102EB200B20AA60A9A0A8E0A820A000001000000DB
:102EC2000000B30B800000000000B00A7209B609CE
:102ED200F70AE709C509D909000000007407720959
:102EE200750D740D00000000640D500D750D420D3E
:102EF200490D460D430D67657420002E76616C0006
:102F020072656376526574436F6D6D616E64466976
:102F12006E6973686564206F6B00726563765265D3
:102F220074436F6D6D616E6446696E697368656442
:102F320020657272000D0A00726563765265744EE6
:102F4200756D626572203A00726563765265744EE1
:102F5200756D62657220657272007365747570209A
:102F62005374617274656400626B636D643D310019
:102F720070616765203000736574757020646F6ED0
:102F82006500286E756C6C29005D005B002C0043A7
:102F92004820446F776E004348205550004D6178B9
:102FA20020444D5820697320353132004765742022
:102FB2004F74686572204D617820444D58204368F3
:102FC200616E6E656C73002A2A2A2A2A2A2A2A2A04
:102FD2002A2A2A2A2A2A2A2A2A2A004368616E6E63
:102FE200656C20746F20746573743A004D617820AB
:102FF200444D582069733A004D4158212120736590
:103002007420646D785F636820746F206D61785FEF
:10301200646D780053657420646D785F6368207412
:103022006F203100536574204D617820444D582043
:10303200746F205344203530202D203438005365DE
:1030420074204D617820444D5820746F204F626582
:1030520079203730202D2033383400536574204DC9
:10306200617820444D5820746F204F626579203476
:1030720030202D203139324800536574204D61785B
:1030820020444D5820746F204F62657920313020E2
:103092002D20313238434800536574204D61782029
:1030A200444D5820746F204F6265792036202D20C0
:1030B2003336434800536574204D617820444D589F
:1030C20020746F204F6265792034202D20313643E1
:1030D2004800536574204D617820444D5820746F28
:1030E200204F6265792033202D20334348006368E6
:1030F200616E6E656C2076616C2069733A00736C48
:10310200696465722076616C75652069733A006244
:1031120032006E30006E310062330062340068307B
:103122000062300062310062360062350062313185
:06313200006231330000D1
:00000001FF
